:100000000EC015C014C013C012C011C010C00FC064
:100010000EC00DC00CC00BC00AC009C008C011241E
:100020001FBECFE5D2E0DEBFCDBF3CD06DC0E8CF74
:1000300082E3C39AE9EFF0E03197F1F700C00000E6
:10004000C398E9EFF0E03197F1F700C0000081506C
:1000500081F7089587EA91E60197F1F700C0000063
:100060000895E6DF87EA91E60197F1F700C0000006
:100070000895DEDFDDDFDCDF87EA91E60197F1F747
:1000800000C00000089587EA91E60197F1F700C0EB
:10009000000087EA91E60197F1F700C0000008959B
:1000A000F2DFF1CFBB9ADDDFDCDFDBDFECDFE1DFAE
:1000B000D8DFDFDFD6DFE7DFDCDFDBDFDADFE3DF60
:1000C000D8DFE1DFD6DFDFDFEBDFCBDFD2DFC9DF79
:1000D000DADFCFDFCEDFCDDFD6DFCBDFC2DFC9DFB8
:1000E000C0DFD1DFC6DFBDDFC4DFCDDFBADFB9DF00
:1000F000B8DFC9DF2FE38DE093E0215080409040CE
:0C010000E1F700C00000CFCFF894FFCF63
:00000001FF
